:020000040800F2
:10000000980A0020010300083F030008410300088C
:1000100043030008450300084703000800000000F0
:10002000000000000000000000000000490300087C
:100030004B030008000000004D030008D11E00081B
:100040005103000851030008510300085103000840
:100050005103000851030008510300085103000830
:100060005103000851030008510300085103000820
:1000700051030008510300087915000851030008D6
:1000800051030008D515000851030008510300086A
:1000900051030008510300085103000851030008F0
:1000A00051030008510300085103000851030008E0
:1000B00051030008510300085103000851030008D0
:1000C00051030008510300085103000851030008C0
:1000D00051030008DD2400084525000851030008ED
:1000E00051030008510300085103000851030008A0
:1000F0005103000851030008510300085103000890
:10010000510300085103000851030008510300087F
:10011000510300085103000851030008510300086F
:10012000510300085103000851030008510300085F
:10013000510300085103000851030008510300084F
:10014000510300085103000851030008510300083F
:10015000510300085103000851030008510300082F
:10016000510300085103000851030008510300081F
:10017000510300085103000851030008000000006B
:10018000510300085103000800F002F800F0A8F83D
:1001900014A696E8000CB244B344DA4501D100F04D
:1001A0009FF8BAE80F000FA696E83000A5EB04050B
:1001B00004EB0607AAEB0704A7F101074FEA1515A0
:1001C0004FEA3414A4F10104AC4201D300F088F8E2
:1001D00013F0010F18BFFB1A43F0010300F001F800
:1001E000DBE718474C3D00006C3D0000103A24BF8F
:1001F00078C878C1FAD8520724BF30C830C144BF8C
:1002000004680C6070470000704700000023002461
:1002100000250026103A28BF78C1FBD8520728BF16
:1002200030C148BF0B6070476E2900F0E98170292A
:1002300000F02F83662903F06285652903F05F854E
:10024000672903F05C85612903F05B8503681B0A5D
:1002500028BF41F08001692900F09681642900F0EF
:100260009381752900F090816F2900F0BD82782973
:1002700000F0FB82E92900F05782E42900F0548263
:10028000F52900F05182EF2900F0BA82F82900F038
:10029000FA820368DB0928BF41F08001632901F07D
:1002A0002C80732901F03180E32901F03C80F3298F
:1002B00001F04180002070471FB503F013FD01F0ED
:1002C0008FF804000020002103F0F6FA401C606063
:1002D0000020002103F0DAFAE0601FBD10B510BD68
:1002E00001F051F81146FFF7E7FF02F03FFC01F083
:1002F0002DF903B4FFF7F2FF03BC01F035F900005C
:1003000017481849184B99423CBF50F8042B41F844
:10031000042BF8D3154B16494FF000028B4238BF1F
:1003200043F8042BFAD3DFF84C00016841F4700164
:100330000160BFF34F8FBFF36F8F0F480047FEE799
:10034000FEE7FEE7FEE7FEE7FEE7FEE7FEE7FEE785
:10035000FEE7000009480A490A4A0B4B70470000B3
:100360008040000800000020100000201000002045
:10037000980A002088ED00E0890100089804002018
:10038000980A002098060020980600200FB41CB59B
:10039000084B06AA7B4469460090059800F049F98D
:1003A00004460020694600F057F920461CBC5DF861
:1003B00014FB0000C102000010B5431C02E010F85D
:1003C000011B71B18107FAD14FF0013202C88C1ABA
:1003D0008C4314EAC211F9D0C01A0A0603D0C01E19
:1003E00010BDC01A10BD0A0401D0801E10BD090244
:1003F000FCD0401E10BD4FF000020429C0F0128056
:1004000010F0030C00F01983CCF1040CBCF1020FC6
:1004100018BF00F8012BA8BF20F8022BA1EB0C019C
:1004200000F00BBB5FEAC17C24BF00F8012B00F891
:10043000012B48BF00F8012B7047000000000000AE
:1004400030B44FF0013C50F8042B51F8043BCCFA87
:1004500052F4D51A20D1FCB950F8042B51F8043BC2
:10046000CCFA52F4D51A17D1B4B950F8042B51F87C
:10047000043BCCFA52F4D51A0ED16CB950F8042BC7
:1004800051F8043BCCFA52F4D51A05D1002CDAD03D
:1004900030BC4FF00000704729BAB1FA81F111F079
:1004A0001801D1F120008440F2D1CA40CB4012F0B3
:1004B000FF0213F0FF0330BCD01A7047704770473B
:1004C000704770B5044685690068C10601D53026BD
:1004D00000E02026C00707D070BDD4E901213046D6
:1004E0009047206A401C20626D1EF6D570BD70B525
:1004F000044685690078C00707D170BDD4E90121A1
:1005000020209047206A401C20626D1EF6D570BDE9
:1005100009684A0501D540B27047C905FCD500B24B
:10052000704709684A0501D5C0B27047C905FCD5B6
:1005300080B2704770B50C460546012A05D0287870
:10054000800600D5EA69002302E0012305E05B1C78
:10055000934202D2E05C0028F9D1A869E618C01ADB
:10056000A861286A184428622846FFF7AAFF04E019
:10057000D5E9012114F8010B9047B442F8D328467D
:10058000FFF7B5FF70BD00002DE9F04106460024DD
:1005900010687529314616A510D0FFF7B9FF00285D
:1005A00002DA404213A507E031688A0701D512A597
:1005B00002E0490704D511A5012401E0FFF7B1FFCE
:1005C00000210A2206F1240709E0B0FBF2FCB0FB8F
:1005D000F2F302FB1C00303078541846491C002806
:1005E000F3D123462A463046BDE8F04100F08FBAE9
:1005F000000000002D0000002B0000002000000083
:1006000011680268006A530501D508700AE0D30535
:1006100001D5088006E0130603D5C217C1E9000220
:1006200000E008600120704701694A1C02610878F7
:10063000704700B58FB0CDE9013100210591054922
:100640007944CDE903101146684600F02DF90FB04A
:1006500000BD0000E5FFFFFF0A6802F8010B0A6019
:10066000704700002DE9FF5F15468A460446DFF813
:10067000AC80F8440027D8E900103E46CDE90010D0
:1006800010E03AF816106A4602A800F058FE411C25
:1006900007D02178890603D5E269391891420DD82F
:1006A0000744761C2078800602D5E069B84205DD53
:1006B000AE42E6DB3AF816000028E2D1A069C01B82
:1006C000A0612046FFF7FDFED8E90010CDE900103B
:1006D000002017E03AF818106A4602A800F02FFE32
:1006E000B0F1FF3F81460BD000250DF1080B05E06E
:1006F000D4E901211BF8050090476D1C4D45F7D347
:1007000008F10100B0428046E4DB206A38442062F0
:100710002046FFF7ECFE00F003B800009236000020
:100720003FBCBDE8C09F00002DE9F0418046D21DCE
:1007300022F007020025D2E90002F52915A614D0FF
:10074000011E72F1000106DA0023D0EB030063EB17
:10075000020211A608E0D8F800108B0701D50FA6F9
:1007600002E0490701D50EA601251146002408F133
:10077000240704E000F086F930323A55641C50EA50
:100780000102F7D12B46324621464046BDE8F041F2
:1007900000F0BDB9000000002D0000002B0000009B
:1007A0002000000030B4002100F1240408E002F031
:1007B0000705D208303542EA4372DB086554491C0C
:1007C00052EA0305F3D10468002310A2250708D5D7
:1007D00004F020040C4304D0C46901230CA2641E5D
:1007E000C46130BC00F093B910B5044621461068CE
:1007F000FFF797FE02462046BDE810400023D1E7F0
:10080000D21D22F00701D1E90023CBE70000000050
:1008100030000000F0B40D460188090502D5214CD6
:100820007C4402E01F4C7C440E34002100F124067D
:1008300008E002F00F071209E75D42EA03721B09A4
:100840007754491C52EA0307F3D1027800231207B8
:1008500004D5702D06D009B1022311342246F0BC14
:1008600000F055B901231034F8E770B504460D4681
:1008700021461068FFF755FE024629462046BDE88E
:1008800070400023C6E7D21D22F00703D3E90023FE
:10089000C0E70368126843F0200303600823C361C4
:1008A0000023B7E7EC3400002DE9F05F89460446E9
:1008B0004FF0000ADFF874B1FB44C0F820A02046D6
:1008C000E1688847002874D0252806D0D4E90121A2
:1008D0009047206A401C2062F1E700265F462046D0
:1008E000E16888472028054607DB312D05D27819B5
:1008F00010F8200C08B10643F1E7B00701D526F047
:100900000406C4F81CA00027C4F818A02A2D09D09A
:10091000284602F0B3FF38B304EB8708303DC8F82F
:10092000185019E059F8041B204604EB8702916126
:10093000E1688847012F054618D1E069002820DAD0
:1009400026F020061DE0D8F8180000EB800005EB2B
:1009500040003038C8F818002046E168884705464E
:1009600002F08CFF0028EED1012F0AD02E2D08D1E5
:100970002046E16888477F1C0546022F46F0200686
:10098000C4DBA069002803DA404246F00106A061FA
:10099000F00701D026F010066C2D0BD0682D09D081
:1009A0004C2D39D06A2D35D0742D35D07A2D33D0D9
:1009B00016E038E0E1682F4620468847B8420546F1
:1009C00009D16C2F26D04FF48060E16806432046A1
:1009D0008847054604E06C2F1AD04FF48070064318
:1009E0000DB3A5F14100192802D8203546F4006660
:1009F0004A462946204626604E46FFF715FC80B140
:100A000001280BD0F61D26F0070000F1080956E773
:100A10004020E4E78020D8E70020D6E706F104096B
:100A20004DE7284652E7206A00F002B87C34000007
:100A300030BCBDE8C09F4FF0000200B5134694469D
:100A40009646203922BFA0E80C50A0E80C50B1F126
:100A50002001BFF4F7AF090728BFA0E80C5048BF3A
:100A60000CC05DF804EB890028BF40F8042B08BFD8
:100A7000704748BF20F8022B11F0804F18BF00F8D4
:100A8000012B704730B5B0F10A0271F100034FEA53
:100A9000900E4EEA817EB0EB0E0061EB91014FEAC1
:100AA000101E4EEA017E10EB0E0041EB11114FEAD1
:100AB000102E4EEA016E10EB0E0041EB11214FEAB1
:100AC000104E4EEA014E10EB0E0041EB1141401862
:100AD00041F100014FEAD00040EA41704FEAD101F4
:100AE0004FEA810444EA907410EB800544EB010462
:100AF0006D1944EB0404521BA3414FF0000348BF9F
:100B00000A3200D530BD401C41F1000130BD2DE955
:100B1000F0470D4699469246044600F124080168C4
:100B2000880604D5E06921F01001216000E0012071
:100B3000A84201DD471B00E00027A1697A1902EBFA
:100B40000900081AA0612078C00602D42046FFF7E9
:100B5000B8FC002608E0D4E901211AF80600904705
:100B6000206A401C761C20624E45F4DB2078C006CB
:100B70000AD52046FFF7A5FC06E0D4E90121302084
:100B80009047206A401C2062381EA7F10107F4DC60
:100B900007E0D4E9012118F805009047206A401CBD
:100BA0002062281EA5F10105F3DC2046FFF79FFC1B
:100BB0002078000602D50220BDE8F0870120FBE77F
:100BC0002DE9FF4F0C461E464FF0FF378BB0D2E9A0
:100BD0000001DDF860800A908A46C1F30A5505B924
:100BE0003D46002108464FF00000BAF1000F00F426
:100BF000400005DA00EB80004FF4400101EA5000AC
:100C00004FEA9059B9F1010F00DDB9460A9850EA50
:100C10004A000ED044F61050A5F2FF3545432F147C
:100C2000B8F1000F1ED07542291E1EDDC9F1000269
:100C30001CE0B8F1010F4FF0000001D0302103E0BB
:100C4000F24305E02154401CB042FBDB3046002259
:100C5000002121540B99C1F80880C1E900200FB090
:100C600000F0BCB9BD1B6D1CDEE74A4600DA6942E4
:100C700006A800F0F9FB06AB93E8070003AB83E896
:100C8000070050460A9902F019FA8DE80700A0F50E
:100C900000501F3800900398002D0ADD42F21F011A
:100CA0004A460844002303A90390684602F082FCE8
:100CB00009E0A0F500504A461F38002303A903901D
:100CC000684602F08CFC8DE807000004000C03D09D
:100CD0004FF0FF30410800E01046B8F1000F03D09C
:100CE0000022009215461EE0751E05D4FFF7CAFECD
:100CF000303262556D1EF9D5B3460122084302D049
:100D000000227F1C04E02078302801D100227F1EC1
:100D1000002A099784D01DE0112D07DAFFF7B2FEF3
:100D2000303262556D1C50EA0102F5D1084302D001
:100D30000098C8B10EE00021681E05E0235C625CEB
:100D400063542254401E491C8142F7DBAB46A81B6A
:100D5000401E0990002004F80B000B98099AC0F877
:100D60000880C0E9002B7AE711264FF0000857E70A
:100D70002DE9F04F88460446D21D22F0070191B0BC
:100D8000D1E90001CDE90A0102F060FD02460B98AD
:100D9000C00F01D02D2007E02068810701D52B204E
:100DA00002E0202101EAC000032A099001D0072AAD
:100DB00005DB03464146204600F016FB0BE1207898
:100DC000800601D5E06900E00620B8F1650F814694
:100DD00006D0B8F1660F18D0B8F1670F70D131E0C6
:100DE0000020B9F1110F009001DB112301E009F19E
:100DF00001030AAA01A90CA8FFF7E2FEDDE90C70C5
:100E0000002609F10105834647E001204B4600908A
:100E10004FF000470AAA01A90CA8FFF7D1FEDDE9AF
:100E20000DB00C995D46002610B909F101000D18AE
:100E3000B9EB050003D4C0F1FF3609F10105A5EBBC
:100E400009002BE0B9F1010F01DA4FF00109002090
:100E5000B9F1110F0090484601DD112300E003466F
:100E60000AAA01A90CA8FFF7ABFEDDE90C704D46FC
:100E700000268346207800070AD4AB4500DA5D4699
:100E800001A8012D04DD411911F8011C302907D0FA
:100E90004F4502DA17F1040F04DA012082460FE011
:100EA0006D1EEEE7002F02DCED1B3E4403E0781CD4
:100EB000A84200DD7D1CB81B00F1010A4FF000477D
:100EC0002078000703D4AA4501DB4FF0FF3A002148
:100ED000B7F1004F0DF143088DF8431024D00220E4
:100EE0002B23002F01DA7F422D230A21021EA0F1BD
:100EF000010000DC5FB197FBF1FC97FBF1F201FB15
:100F00001C7C17460CF1300C08F801CDEEE7A8F177
:100F1000010003702188090501D5452100E0652104
:100F2000A0F1010800F8011C09980FA9A1EB08071E
:100F3000FF1D00B10120411901EBEA70A16938449D
:100F4000081A401EA0612078C00602D42046FFF790
:100F5000B8FA099828B1D4E901219047206A401CC9
:100F600020622078C00622D52046FFF7AAFA1EE0AC
:100F7000002E04DBB34502DD01A8805D00E03020D7
:100F8000D4E901219047206A401C2062761CAAF116
:100F900001005FEA000A0AD100F022FAC068016885
:100FA000405CD4E901219047206A401C2062281E41
:100FB000A5F10105DCDC07E0D4E9012118F8010BFB
:100FC0009047206A401C2062381EA7F10107F3DC1D
:100FD0002046FFF78CFA032011B041E630BCBDE893
:100FE000C08F00002DE9F04F04460D46D21D22F0BF
:100FF000070089B0D0E900974846394602F026FC40
:101000000246F80F01D02D2307E02068810701D5A3
:101010002B2302E0202101EAC0038DF820300BB120
:10102000012000E00020032A824601D0072A04DBC9
:101030002946204600F0D8F93FE12078800601D407
:101040000D2500E0E569C7F30A560D2D49DA0021A8
:101050004FEA175B08464FF00000002F00F44000F5
:1010600007DA00EB80004FF4400100EBD07001EA9A
:1010700060008115012901DD4FF0FF3100224FEAA8
:10108000850CBCF1180F06D31346ACF118004FF0D5
:101090008052C24003E04FF4801323FA0CF30CF1AA
:1010A0000C0CBCF1200F04D3ACF1200C09FA0CF0AD
:1010B00001E007FA0CF000294FF0004801DD18B9F3
:1010C0000FE00ED140450CD319EB02095F4121B965
:1010D000404502D19F4329EA0209BBEB175F00D0CC
:1010E000761C2088000502D57B48784402E07A48C7
:1010F0007844193808AA302302F80A30037C0AF130
:101100000101002E0AF1020A53546A4602DC4FF034
:10111000300101E04FF031014FF001088DF800106F
:1011200002D0A6F2FF3603E059EA470100D06B4E29
:10113000002D02DC2178090704D54FF002082E218A
:101140008DF80110C44600210BE0C7F303433F01B3
:10115000C35C491C6D1E02F80830052908F101081E
:1011600001DA002DF1DC00210CE000EB1973491CC1
:101170001B786D1E082902F808304FEA091908F19A
:10118000010801DA002DF0DC21688B0602D516E09B
:10119000A8F10108E04505DD02EB080313F8013C66
:1011A000302BF5D0B8F1000F09DD02EB080313F87E
:1011B000013C2E2B03D1090701D4A8F10108002D11
:1011C00005DD3E2102F808106D1E08F10108407C83
:1011D000002E02F8080008F1010804DA2D207642FA
:1011E00002F8080002E02B2002F808000A214FF460
:1011F0007A70864208F101080BDB96FBF0F330337E
:1012000002F8083096FBF0F308F1010800FB1366C2
:1012100001E0642E0CDB642096FBF0F3303302F81F
:10122000083096FBF0F308F1010800FB136601E0BB
:101230000A2E06DB96FBF1F0303002F8080008F1C8
:10124000010896FBF1F001FB1060303002F8080055
:10125000A16908F1010808EB050202EB0A00081A6F
:10126000A0612078C00602D42046FFF72AF9216A3F
:1012700008AE01EB0A00206204E0D4E9012116F86F
:10128000010B9047BAF1010AF7D22078C00602D5C7
:101290002046FFF716F96E4609E016F8010B3E28C6
:1012A0000FD0D4E901219047206A401C2062B8F198
:1012B0000108F2D22046FFF71AF909B0032000F026
:1012C0000FB8206A2844206203E0D4E901213020CD
:1012D00090476D1EEBD3F8E76E2C000002FCFFFF79
:1012E00030BCBDE8C08F10B5436913B1AFF30080C7
:1012F00001E0FFF71FF9012010BD127800F1240171
:101300000A7000224A700122EDE711684FF0FF32A7
:10131000E9E710B5436913B1AFF3008001E0FFF7CF
:10132000A1F9012010BD128800F12401828400225D
:10133000C2840122EDE711684FF0FF32E9E72DE9A1
:10134000F04116460C46054600F042F8036893F853
:101350000101012807D0FF2C12D8185D80B10120AF
:101360002C70BDE8F081D3F807013246214603F224
:101370000713C7182846BC46BDE8F0410023604764
:101380004FF0FF30EDE7754600F0EAF8AE46050095
:101390006946534620F00700854618B020B5FEF791
:1013A000D9FFBDE820404FF000064FF000074FF096
:1013B00000084FF0000BAC46ACE8C009ACE8C0092F
:1013C000ACE8C009ACE8C00921F007018D467047C0
:1013D00010B500F005F8001D10BD00BFDD240000B1
:1013E00000487047300000202DE9F0411F460446B8
:1013F00003260168072A01F4006004DB08B116A582
:1014000005E016A503E008B115A500E015A521F03B
:1014100010002060A069C01EA0610FB1401EA06135
:101420002046FFF74EF84FB1D4E9012138469047E6
:10143000206A401C2062C01C206206E0206AFAE795
:10144000D4E9012115F8010B9047761EF8D2204609
:10145000FFF74DF8BDE8F0814E414E006E616E0021
:10146000494E4600696E66002DE9F04781461646F2
:101470008AB0354878440DC88DE80D00324878446C
:10148000801C03AC0DC884E80D0041F69B30084475
:10149000372190FBF1F290FBF1F5A5F1800501FBFE
:1014A00012041B3C02D56442012000E00020DFF85A
:1014B00098A080460027FA44AAF1BE0A0EE0E00791
:1014C0000AD03246684607EB470101230AEB810147
:1014D00002F085F88DE8070064107F1C002CEED127
:1014E000194F7F44AE3F19E0E80715D007EB041011
:1014F0000DF1180A90E80E008AE80E00C068F0426C
:1015000001D1981908903246012306A903A802F0D8
:1015100066F803AB83E807006D10641C002DE3D16F
:101520004FF0010332466946B8F1000F03A802D01C
:1015300002F040F801E002F052F8C9E90001C9F8F0
:1015400008200AB0BDE8F0877429000010B50446F1
:10155000AFF300802046BDE81040FEF7CABE000091
:10156000004870471000002001491820ABBEFEE77C
:10157000260002007047000080B50E2001F0B4F88C
:101580000020C4F2020000688004002819D5FFE79B
:101590000421C4F20201086840F40050086040F2DF
:1015A0007931C2F200010120087040F29440C2F289
:1015B00000000168086820F00100086001F066FB87
:1015C000FFE70421C4F20201086840F4805008607B
:1015D00080BD000080B5112001F086F80020C4F223
:1015E000020000688001002819D5FFE70421C4F239
:1015F0000201086840F00070086040F27931C2F2E0
:1016000000010120087040F29440C2F2000001681D
:10161000086820F00100086001F038FBFFE70421B2
:10162000C4F20201086840F08070086080BD0000CC
:1016300080B586B00590049141F24801C4F20201E0
:10164000086840F00100086000200390FFE703985D
:10165000B0F5C86F05DAFFE7FFE7039801300390A4
:10166000F5E70599086820F0010008600599086809
:1016700020F4804008600599086820F44050086014
:101680000599086840F4005008600599086820F43E
:10169000407008600599086820F44060086005996A
:1016A000086820F0400008600599086840F0800054
:1016B00008600599086820F020000860059908680E
:1016C00040F0100008600599086840F002000860CA
:1016D00005984421C4F20201884213D1FFE7A821F2
:1016E000C4F20201086840F4005008600E20029025
:1016F000012101F07BF8029801F026F8029800F031
:10170000DBFF1AE005988021C4F20201884213D160
:10171000FFE7A821C4F20201086840F000700860E9
:1017200011200190012101F061F8019801F00CF8FD
:10173000019800F0C1FFFFE7FFE706B080BD0000A1
:1017400041F24C01C4F20201086840F00200086056
:1017500040F20041C4F60001086820F440500860DF
:10176000086840F400500860086820F440400860B1
:10177000086840F40040086040F22041C4F60001CF
:10178000086840F080600860086840F080400860A9
:1017900040F20841C4F60001086840F44050086077
:1017A000086840F44040086040F20441C4F600017B
:1017B000086840F040000860086840F08000086059
:1017C00040F20C41C4F60001086840F48050086003
:1017D000086840F4804008607047000081B05220E3
:1017E000009041F25801C4F20201086840F4001070
:1017F000086041F28801C4F20201086840F4805098
:10180000086041F23801C4F20201086840F4001097
:101810000860086820F40010086045F20041C4F236
:101820000001086820F001000860086820F480507A
:101830000860086820F470600860086840F0800064
:101840000860086820F40030086045F20442C4F2E1
:101850000002106820F400601060106840F0007012
:101860001060106840F40040106045F21042C4F26D
:101870000002106840F0E0401060106840F4100072
:101880001060106840F440201060106840F41C5054
:101890001060106840F02E00106045F20842C4F25B
:1018A0000002106820F400401060106820F480608E
:1018B0001060009B106840EA43001060106840F41C
:1018C00000401060086840F00100086001B07047F7
:1018D00080B586B004908DF80F1002928DF8073015
:1018E0009DF80700012803DBFFE7029820B9FFE716
:1018F000FF208DF8170034E0049800F0EDF804980C
:101900009DF80F109DF80720012300F09DF800209E
:101910000090FFE700989DF80710884212DAFFE771
:10192000FFE7049880694007002801D4FFE7F8E743
:101930000498406A0299009A8854FFE700980130A1
:101940000090E7E7FFE7049880694006002801D48B
:10195000FFE7F8E7049800F0ADF800208DF81700D5
:10196000FFE79DF9170006B080BD000080B588B084
:1019700006908DF8171004928DF80F309DF80F0027
:10198000012803DBFFE7049820B9FFE7FF208DF86B
:101990001F0055E0069800F09FF806989DF8171074
:1019A0009DF80F20002300F04FF8B0F1FF3F04DC5A
:1019B000FFE7FF208DF81F0042E000200290FFE7C4
:1019C00002989DF80F10884212DAFFE7FFE70698A9
:1019D00080698007002801D4FFE7F8E7049802999E
:1019E000405C06998862FFE7029801300290E7E7C1
:1019F000FFE706988169002049060029019009D473
:101A0000FFE70698806900F01001012080EA1110BC
:101A10000190FFE70198C00708B1FFE7E9E70698E2
:101A20008069C006002804D5FFE7FF208DF81F005D
:101A300006E0069800F03EF800208DF81F00FFE752
:101A40009DF91F0008B080BD84B0039002918DF80D
:101A500007208DF806300020009003984068009021
:101A6000009849F60001CFF60041084000909DF82B
:101A70000600012805D1FFE7009840F4806000903F
:101A800004E0009820F480600090FFE702986FF374
:101A90009F209DF8071040EA0141009808430090FC
:101AA000009840F40050009000980399486000208E
:101AB00004B0704781B000900099486840F48040BD
:101AC0004860FFE7009880698006002801D4FFE79E
:101AD000F8E701B07047000081B00090FFE7009880
:101AE00080690004002801D5FFE7F8E701B07047DE
:101AF00041F24C01C4F20201086840F001000860A4
:101B0000086840F0040008604FF09041086820F435
:101B100040600860086840F4806008600421C4F6F2
:101B20000001086820F0200008600C21C4F60001C4
:101B3000086820F4406008607047000041F24C01E2
:101B4000C4F20201086840F00400086040F6000C8E
:101B5000C4F6000CDCF8000020F44060CCF8000073
:101B6000DCF8000040F48060CCF8000040F6080388
:101B7000C4F60003186820F440601860186840F448
:101B80000060186040F60402C4F60002106820F0FD
:101B90002000106040F60C01C4F60001086820F433
:101BA00040600860DCF8000020F44050CCF80000F1
:101BB000DCF8000040F48050CCF80000186820F4F5
:101BC00040501860186840F400501860106820F009
:101BD00040001060086820F440500860DCF8000005
:101BE00020F44030CCF80000DCF8000040F48030F5
:101BF000CCF80000186820F440301860186840F4F1
:101C000000301860106820F480701060086820F4BC
:101C100040300860DCF8000020F44020CCF80000E0
:101C2000DCF8000040F48020CCF80000186820F4B4
:101C300040201860186840F400201860106820F4F4
:101C400000701060086820F44020086070470000B1
:101C500041F24C01C4F20201086840F00100086042
:101C6000086840F0020008604FF09041086820F4D6
:101C700040700860086840F40070086040F200415D
:101C8000C4F60001086820F0C0000860086840F051
:101C900080000860086820F440700860086840F41C
:101CA00000700860086820F440600860086840F42C
:101CB000006008602021C4F60001086840F480201C
:101CC0000860086840F48030086040F22041C4F6A3
:101CD0000001086840F480400860086840F48050C3
:101CE0000860086840F480200860086840F480308C
:101CF0000860086840F480000860086840F48010BC
:101D000008600821C4F60001086840F440700860CB
:101D100040F20841C4F60001086840F0C0000860C5
:101D2000086840F440700860086840F4406008604B
:101D30000421C4F60001086820F01000086040F299
:101D40000441C4F60001086820F008000860086833
:101D500020F010000860086820F0200008600C21C6
:101D6000C4F60001086820F44070086040F20C419D
:101D7000C4F60001086820F0C0000860086820F47C
:101D800040700860086820F44060086070470000F8
:101D900041F26001C4F20201086840F4805008601A
:101DA00041F24001C4F20201086840F4805008602A
:101DB000086820F48050086043F20001C4F2010179
:101DC000086820F040000860086820F4806008601F
:101DD000086820F400400860086820F4804008602B
:101DE000086820F08000086043F20402C4F2010297
:101DF000106840F470601060106820F010001060EF
:101E0000086840F002000860086840F001000860BF
:101E1000086840F008000860086840F0100008609A
:101E2000086820F400500860086840F0040008606A
:101E3000086820F400700860106840F00800106026
:101E4000106840F004001060106820F480501060AA
:101E5000086840F0400008607047000081B0ADF8AD
:101E60000200FFE743F20800C4F20100006800F03E
:101E70000200022801D0FFE7F4E743F20C01C4F2AC
:101E800001010868BDF8022042400868504008601F
:101E9000FFE743F20800C4F20100006800060028D2
:101EA00001D5FFE7F5E7FFE743F20800C4F20100C0
:101EB0000068C00708B9FFE7F6E743F20C00C4F278
:101EC00001000068ADF80000BDF8000001B07047E7
:101ED00080B540F28C40C2F200000168013101601F
:101EE00000684CF6CD41CCF6CC414843B0F1333FCD
:101EF00003D8FFE701F07CF8FFE780BD80B582B032
:101F00004EF21001CEF200010020019008604EF266
:101F10001403CEF2000343F67F02C0F201021A60FE
:101F20004EF21802CEF200021060086840F0020083
:101F30000860086840F001000860086840F004008C
:101F400008604FF0FF30009000F0E6FB0098019928
:101F500000F02AFC02B080BD83B042F20001C4F25E
:101F60000201086820F007000860086840F00200DD
:101F7000086041F20001C4F20201086840F4807078
:101F80000860FFE741F20000C4F20200006840056B
:101F9000002801D4FFE7F5E71020029041F2040188
:101FA000C4F20201086820F0F8500860029A08683C
:101FB00040EA0260086041F20001C4F202010868D0
:101FC00020F080700860FFE741F20000C4F20200D8
:101FD00000688001002801D5FFE7F5E741F20C0118
:101FE000C4F202010191086820F00300086008684B
:101FF00040F0020008600868142262F30E200860B6
:102000000868012262F306100860086820F0C060CA
:102010000860086840F08070086041F20001C4F276
:102020000201086840F080700860FFE741F200009C
:10203000C4F2020000688001002801D4FFE7F5E740
:1020400041F20801C4F20201086820F003000860B0
:10205000086840F003000860FFE741F20800C4F29E
:102060000200006800F00C000C2801D0FFE7F4E744
:1020700041F20801C4F20201086820F0F000086093
:10208000086820F4E0600860086820F46050086088
:1020900041F20001C4F20201086820F0806008608B
:1020A000FFE741F20000C4F202000068400100288E
:1020B00001D5FFE7F5E741F21001C4F202010091FA
:1020C000086820F4FE400860086840F4C0500860CA
:1020D000086840F400300860086840F48030086008
:1020E00041F20001C4F20201086840F0806008601B
:1020F000FFE741F20000C4F202000068400100283E
:1021000001D4FFE7F5E741F28801C4F20201086853
:1021100020F44000086041F26001C4F20201086846
:1021200040F40010086003B07047000041F24C0119
:10213000C4F20201086840F0010008604FF09041CD
:10214000086820F440200860086840F40020086017
:10215000086820F440100860086840F40010086027
:102160002421C4F60001086840F0F0000860086807
:1021700020F080000860086840F47060086008681B
:1021800020F4006008600821C4F60001086840F4EB
:1021900040200860086840F4401008600421C4F63C
:1021A0000001086820F400700860086820F480606E
:1021B00008600C21C4F60001086840F48020086023
:1021C000086840F4801008607047000041F2600128
:1021D000C4F20201086840F48040086041F28801BE
:1021E000C4F20201086840F0010008607047000076
:1021F00041F24C01C4F20201086840F0010008609D
:102200004FF09041086820F030000860086840F006
:1022100020000860086820F0C0000860086840F0EE
:10222000800008602021C4F60001086840F4706056
:102230000860086820F400600860086840F4704096
:102240000860086820F4004008600821C4F6000116
:10225000086840F030000860086840F0C00008607E
:102260000421C4F60001086820F004000860086832
:1022700020F0080008600C21C4F60001086840F056
:1022800010000860086840F04000086070470000D7
:1022900041F25801C4F20201086840F400300860BD
:1022A00041F28801C4F20201086840F004000860AD
:1022B0007047000080B544F21C40C4F20000006882
:1022C0008006002809D5FFE744F22440C4F200004C
:1022D0000088C0B200F0BAFEFFE780BD80B586B0CE
:1022E0000590049140F27C40C2F20000006878B191
:1022F000FFE740F27100C2F20000039043F657611D
:10230000C0F60001FEF742F8039800F081F87CE087
:10231000059843F6F861C0F60001FEF791F8E0B9C0
:10232000FFE700F009FD40F27000C2F20000007803
:1023300090B9FFE740F27001C2F20001012008707D
:1023400040F27432C2F200020021116040F27C417E
:10235000C2F200010860FFE756E0059843F6F56118
:10236000C0F60001FEF76CF8E0B9FFE700F014FBDF
:1023700040F27000C2F20000007890B9FFE740F22E
:102380007001C2F200010120087040F27432C2F202
:1023900000020021116040F27C41C2F2000108609D
:1023A000FFE730E0059843F6FB61C0F60001FEF759
:1023B00047F8C0B9FFE7002000F03CFE40F2710092
:1023C000C2F20000029043F62461C0F60001FDF75E
:1023D000DDFF029800F01CF840F27001C2F200012B
:1023E000012008700EE040F27100C2F2000001907E
:1023F00043F64661C0F60001FDF7C8FF019800F002
:1024000007F8FFE7FFE7FFE7FFE706B080BD000042
:1024100080B584B0039040F29440C2F2000000689E
:102420000068C00700283ED1FFE70398FDF7C4FF0E
:1024300040F27A31C2F200010291087040F20000CD
:10244000C2F2000000680399FDF7A0FF029801782E
:1024500040F29440C2F200000268516040F27932CA
:10246000C2F20002002111700168086840F001000A
:102470000860FFE740F27930C2F20000007808B946
:10248000FFE7F7E740F20000C2F20000006840F208
:102490007A31C2F2000101910978FDF7ACFF019990
:1024A0000020087017E040F20800C2F20000006847
:1024B00040F28041C2F2000100910978084403997A
:1024C000FDF764FF0398FDF777FF0099024608784F
:1024D00010440870FFE704B080BD000080B52520DF
:1024E00000F002F940F29441C2F200014420C4F22B
:1024F0000200086043F61C00C4F201000068800678
:10250000002809D5FFE743F62400C4F20100008843
:10251000C0B200F09BFD14E043F61C00C4F20100C1
:102520000068400600280BD5FFE743F62001C4F2FF
:102530000101086840F04000086000F0A7FBFFE7D9
:10254000FFE780BD80B540F29441C2F200018020D7
:10255000C4F202000860262000F0C6F844F21C40D5
:10256000C4F2000000688006002809D5FFE744F2A5
:102570002440C4F200000088C0B200F067FD14E0FF
:1025800044F21C40C4F200000068400600280BD54D
:10259000FFE744F22041C4F20001086840F0400027
:1025A000086000F073FBFFE7FFE780BD80B584B0F3
:1025B00003900399086820F001000860039843F62F
:1025C0000001C4F20101884215D1FFE7FFF7FEFDCB
:1025D000FFF7ACFD40F29441C2F200014420C4F286
:1025E0000200086025200290022100F021F90298E3
:1025F00000F0C2F81DE0039844F20041C4F200016B
:10260000884215D1FFE7FFF743FEFFF7F1FD40F2E7
:102610009441C2F200018020C4F20200086026202A
:102620000190022100F004F9019800F0A5F8FFE7FD
:10263000FFE740F29440C2F2000000900068039966
:10264000FEF7F6FF009940F20000C2F200000068B9
:102650000A68D06003982830096888600399086880
:1026600020F0102008600399086820F400400860FA
:102670000399486820F440504860039942F28D0065
:10268000C8600399086840F00C00086003998868E6
:1026900040F0800088600399886840F4805088602A
:1026A0000399086840F0200008600399086840F02A
:1026B0000100086004B080BD81B08DF803009DF971
:1026C000030000280ED4FFE79DF9031001F01F025C
:1026D000012090404A094EF28021CEF2000141F8DB
:1026E0002200FFE701B0704781B08DF803009DF92B
:1026F000030000280ED4FFE79DF9031001F01F022C
:10270000012090404A094EF28021CEF2000141F8AA
:102710002200FFE701B0704781B08DF803009DF9FA
:10272000030000280ED4FFE79DF9031001F01F02FB
:10273000012090404A094EF20011CEF2000141F80A
:102740002200FFE701B0704781B08DF803009DF9CA
:10275000030000280ED4FFE79DF9031001F01F02CB
:10276000012090404A094EF20011CEF2000141F8DA
:102770002200FFE701B0704781B08DF803009DF99A
:10278000030000280ED4FFE79DF9031001F01F029B
:10279000012090404A094EF20011CEF2000141F8AA
:1027A0002200FFE701B0704782B08DF8070000916A
:1027B0009DF9070000280AD4FFE7009800019DF961
:1027C00007104EF20042CEF2000288540BE000984F
:1027D00000019DF8071001F00F014EF61452CEF2E1
:1027E00000028854FFE702B07047000082B08DF805
:1027F000070000919DF9070000280AD4FFE7009820
:1028000000019DF907104EF20042CEF200028854FA
:102810000BE0009800019DF8071001F00F014EF643
:102820001452CEF200028854FFE702B07047000055
:1028300082B08DF8070000919DF9070000280AD4A6
:10284000FFE7009800019DF907104EF20042CEF21A
:10285000000288540BE0009800019DF8071001F079
:102860000F014EF61452CEF200028854FFE702B078
:102870007047000080B582B08DF807009DF8071002
:102880004FF4004040EA0120FFF7E8FAADF80400F9
:10289000BDF804008DF803009DF8030002B080BD70
:1028A00080B582B08DF807008DF806109DF80710EE
:1028B0009DF8060040EA0120ADF80400BDF80400D0
:1028C000FFF7CCFA02B080BD80B584B0039040F22F
:1028D0007C40C2F20000006808B1FFE757E040F218
:1028E0000400C2F200000068012823DBFFE7039820
:1028F0001C281FDBFFE7039A40F27100C2F20000C0
:10290000029043F6FE61C0F60001FDF73FFD02981C
:10291000FFF77EFD40F20401C2F200010868404268
:10292000086000F009FA40F27001C2F200010120D3
:1029300008702CE040F20400C2F200000068B0F120
:10294000FF3F23DCFFE7039816281FDCFFE7039A0D
:1029500040F27100C2F20000019043F61771C0F618
:102960000001FDF713FD0198FFF752FD40F204014D
:10297000C2F2000108684042086000F00DF840F221
:102980007001C2F2000101200870FFE7FFE704B008
:1029900080BD00000000000080B590B040F27100E2
:1029A000C2F20000089043F6C861C0F60001FDF7CE
:1029B000EDFC0898FFF72CFD012000F03BFB40F2F6
:1029C0007001C2F20001002008700EA80CA90AAA2A
:1029D00000F086F8FFE740F27000C2F200000178D4
:1029E0000020079069B9FFE70C980D999FED2E0B19
:1029F00053EC102B01F06FF9002818BF012007904D
:102A0000FFE70798C00760B3FFE7C82000F050F861
:102A10000EA80CA90AAA00F063F809A800F06CF847
:102A20000998FFF751FFFFF745FC9DED0E0B9DED5B
:102A30000C1B9DED0A2B684680ED022B80ED001BE0
:102A400053EC102B40F27100C2F20000069043F6E6
:102A50008E61C0F60001FDF799FC0698FFF7D8FCDF
:102A6000B9E7002000F0E6FA40F27000C2F2000080
:102A70000078A8B9FFE740F27100C2F200000590AB
:102A800043F6D261C0F60001FDF780FC0598FFF720
:102A9000BFFC40F20401C2F2000101200860FFE720
:102AA00010B080BD00BF00BFCDCCCCCCCCCCF03FB3
:102AB00082B0019040F28C40C2F2000000680090A9
:102AC000FFE740F28C40C2F2000000680099401A13
:102AD0000199884201D2FFE7F3E702B07047000096
:102AE00080B584B003900291019203980299019AF3
:102AF00000F0B2F904B080BD80B584B0039090209E
:102B00008DF80B0000208DF80A008DF80A009DF862
:102B10000B1045F20040C4F2000001900DF10A02D2
:102B200001230093FEF722FF009B01989DF80B10F4
:102B30000DF10902FEF7CCFE9DF8090000F07F00C0
:102B40000399086004B080BD80B582B02C200A21B2
:102B5000FFF7A6FE312008210191FFF7A1FE0199A0
:102B60002D20FFF79DFE02B080BD000080B58CB027
:102B7000002003900B90FFF7EFF9FEF7DFFFFFF760
:102B8000BDF9FEF7B5FF43F60000C4F20100FFF700
:102B90000DFDFFF75DF8FFF7FBF8FFF7D5FFFEF738
:102BA000CFFDFEF71BFE40F27100C2F20000029062
:102BB00043F63461C0F60001FDF7E8FB0298FFF729
:102BC00027FC03980A90FFF7E7FEFFE740F27C40FE
:102BD000C2F20000006858B3FFE740F27430C2F25E
:102BE000000000681E281ADBFFE740F27C41C2F2B9
:102BF00000010020086040F27431C2F20001086058
:102C000040F27100C2F20000019043F68061C0F60C
:102C10000001FDF7BBFB0198FFF7FAFB07E040F26C
:102C20007431C2F20001086801300860FFE7FFE775
:102C300008A806A904AAFFF753FF0AA8FFF75CFF3C
:102C400040F28440C2F2000000680A99884210D025
:102C5000FFE70A9A40F27100C2F20000009043F6CA
:102C6000E161C0F60001FDF791FB0098FFF7D0FB92
:102C7000FFE70A9840F28441C2F2000108600A9816
:102C8000FFF722FE6420FFF713FF9FE780B582B0B5
:102C900040F28040C2F200000078002847D0FFE7F1
:102CA00040F20002C2F200021068019040F20801F6
:102CB000C2F20001086810600198086040F280408C
:102CC000C2F20000017840F29440C2F200000268B3
:102CD000516040F27932C2F20002002111700168A5
:102CE000086840F001000860FFE740F27930C2F266
:102CF0000000007808B9FFE7F7E740F29440C2F21D
:102D000000000168086820F00100086040F2080037
:102D1000C2F20000006840F28041C2F2000100915E
:102D20000978FDF768FB009900200870FFE702B002
:102D300080BD00000000000080B590B040F271003E
:102D4000C2F20000089043F6AF61C0F60001FDF743
:102D50001DFB0898FFF75CFB4FF0FF3000F06AF9AD
:102D600040F27001C2F20001002008700EA80CA908
:102D70000AAAFFF7B5FEFFE740F27000C2F20000BA
:102D800001780020079069B9FFE70A980B999FED39
:102D9000300B53EC102B00F09EFF002818BF0120D1
:102DA0000790FFE70798C00760B3FFE70EA80CA9DC
:102DB0000AAAFFF795FE09A8FFF79EFE0998FFF7FC
:102DC00083FDFFF777FA9DED0E0B9DED0C1B9DED3E
:102DD0000A2B684680ED022B80ED001B53EC102B74
:102DE00040F27100C2F20000069043F68E61C0F618
:102DF0000001FDF7CBFA0698FFF70AFB6420FFF706
:102E000057FEB9E74FF44870FFF752FE002000F07C
:102E100011F940F27000C2F200000078B0B9FFE78B
:102E200040F27100C2F20000059043F6B961C0F6AD
:102E30000001FDF7ABFA0598FFF7EAFA40F204014A
:102E4000C2F200014FF0FF300860FFE710B080BD14
:102E5000CDCCCCCCCCCCF03F80B58EB00D900C91CD
:102E60000B923220FFF706FD8DF82B003320FFF781
:102E700001FD8DF82A003420FFF7FCFC8DF82900B5
:102E80003520FFF7F7FC8DF828003620FFF7F2FC1D
:102E90008DF827003720FFF7EDFC8DF826009DF810
:102EA0002A000006002812D5FFE79DF82A109DF899
:102EB0002B0040EA012001304FF6FF7148404042AC
:102EC00000F058FD41EC100B8DED060B0CE09DF869
:102ED0002A109DF82B0040EA012000F04BFD41EC48
:102EE000100B8DED060BFFE79DF82800000600286B
:102EF00012D5FFE79DF828109DF8290040EA01202F
:102F000001304FF6FF714840404200F033FD41EC84
:102F1000100B8DED040B0CE09DF828109DF8290096
:102F200040EA012000F026FD41EC100B8DED040B72
:102F3000FFE79DF826000006002812D5FFE79DF860
:102F400026109DF8270040EA012001304FF6FF715E
:102F50004840404200F00EFD41EC100B8DED020B9D
:102F60000CE09DF826109DF8270040EA012000F0B3
:102F700001FD41EC100B8DED020BFFE74FF2E42059
:102F8000C3F66F70019047F2DE10C8F68A600090B9
:102F90009DED061B9DED000B51EC110B53EC102B1E
:102FA00000F078FD41EC100B0D9880ED000B9DEDCD
:102FB000041B9DED000B51EC110B53EC102B00F09A
:102FC00069FD41EC100B0C9880ED000B9DED021B90
:102FD0009DED000B51EC110B53EC102B00F05AFD42
:102FE00041EC100B0B9880ED000B0EB080BD000083
:102FF00040F27830C2F20000027840F29040C2F213
:10300000000001781144017040F61401C4F600017B
:103010000A6822F458720A60007800F0070243F64A
:103020000460C0F6000050F82220086810430860D1
:103030007047000081B08DF803009DF8030040F256
:103040007831C2F20001087001B0704780B5C6B097
:103050008DF817019DF8170140F28841C2F2000176
:103060000B7840F27B32C2F20002D0540878013073
:1030700008709DF817010A281ED1FFE740F288402A
:10308000C2F2000002900078049040F27B31C2F25C
:10309000000101910DF117000390FDF777F90299F6
:1030A00001980978FDF7A7F9029A03980021117099
:1030B0000499FFF713F9FFE746B080BD5FEA400CC3
:1030C00008BF91F0000F4FEA8C234FEAC12243EA78
:1030D00051514FEA1C5018BF00F5F0404FEA300044
:1030E00018BF41F000415FEA6C5C00F02980BCF140
:1030F000FF3F08BF40F080407047130C06BF12042A
:103100004FF0100C4FF0000C130E04BF12020CF124
:10311000080C130F04BF12010CF1040C930F04BF31
:1031200092000CF1020CD30F04BF52000CF1010C01
:1031300011464FF00002A0F11F00A0EB0C007047F9
:1031400011F0004F08BF704731F000413FF4D5AF98
:103150000B0C06BF09044FF0100C4FF0000C0B0EC7
:1031600004BF09020CF1080C0B0F04BF09010CF19C
:10317000040C8B0F04BF89000CF1020CCB0F04BFB1
:1031800049000CF1010CCCF1200322FA03F341EACF
:10319000030102FA0CF2A0EB0C0000F101007047F1
:1031A00023F07F4720F07F4C80EA030000F00040CE
:1031B000ACEB070303F57C5303F1FF032DE98049D2
:1031C00009B44FEA144324EA03484FEA154B25EAB1
:1031D0000B4E0FF2042606EB13273E7803FB06671F
:1031E000C7F5000707FB06F64FEAD64606F10206CA
:1031F0004FEA543707FB066CCCF1005C4FEA1C47E2
:103200002CEA074C0CFB06F507FB06F404EB15460D
:103210004FEA961649085FEA320234BF00204FF0A9
:1032200000404FEAD13706FB07FC4FEA1C4C0CFB71
:103230000BF7D21B03FB0CF761EB07010CFB0EF73E
:10324000B0EB074072EB17420CFB08F734BFA2EB60
:103250000742B2EB074261EB17414FEA0C444FEAD9
:10326000910706FB07FC4FEA1C4C0CFB0BF7B0EB7D
:10327000C74072EB573203FB0CF734BFA2EBC742D7
:10328000B2EBC74261EB57310CFB0EF7B0EBC70056
:1032900072EB57720CFB08F734BFA2EBC702B2EB1C
:1032A000C70261EB57714FEA816141EA92114FEA1F
:1032B000826242EA90124FEA806004EBCC04039FE2
:1032C0004FEAD13706FB07FC4FEA1C4C0CFB0BF70F
:1032D000D21B03FB0CF761EB07010CFB0EF7B0EB05
:1032E000074072EB17420CFB08F734BFA2EB074212
:1032F000B2EB074261EB17414FEA8C5504EB9C247B
:103300004FEA910706FB07FC4FEA1C4C0CFB0BF73E
:10331000B0EBC74072EB573203FB0CF734BFA2EBA4
:10332000C742B2EBC74261EB57310CFB0EF7B0EB73
:10333000C70072EB57720CFB08F734BFA2EBC70251
:10334000B2EBC70261EB57714FEA816141EA92111A
:103350004FEA826242EA90124FEA806015EB4C25F8
:1033600044F100044FEAD13706FB07FC4FEA1C4C3E
:103370000CFB0BF7D21B03FB0CF761EB07010CFBFB
:103380000EF7B0EB074072EB17420CFB08F734BFA7
:10339000A2EB0742B2EB074261EB17414FEA8131E2
:1033A00041EA92414FEA823242EA90424FEA80304B
:1033B0004FEA0C7615EB1C1544F1000448EA034370
:1033C0004EEA0B484FF0000EB2EB080C71EB03070E
:1033D00024BF624639464EEB0E0E4FF0000B00182C
:1033E000524149414BEB0B0BB2EB080C71EB03075D
:1033F0007BF1000B24BF624639464EEB0E0E4FF0B8
:10340000000B0018524149414BEB0B0BB2EB080C7F
:1034100071EB03077BF1000B24BF624639464EEB8C
:103420000E0E51EA020718BF46F0010616EB0E76A3
:1034300055F1000254F1000103D5BDE88901BDE852
:103440000088BDE88901BDE80048B619524141EB4A
:103450000101A3F10103704780807F7E7D7C7B7A30
:103460007978777676757473727171706F6E6E6D30
:103470006C6C6B6A6A6968686766666564646363D6
:1034800062616160605F5F5E5E5D5D5C5C5B5B5A5C
:103490005A595958585757565655555554545353C9
:1034A00052525251515050504F4F4F4E4E4D4D4D24
:1034B0004C4C4C4B4B4B4A4A4A494949484848476F
:1034C00047474746464645454544444444434343AD
:1034D00043424242424141419C46002B30D4770056
:1034E0002BD04FEA37071CB503B44FF010004FF054
:1034F0001001BAF1000F06D0BCF1000FDCBF40F0A4
:10350000080040F008014FF000000FBCBDE810407B
:103510000BF1010BBBF1010F08BF5FEA170722BFD8
:1035200012F1010211F101014FF0004143F10003DA
:1035300000F0004043EA00007047F9D35708D0E795
:1035400046EA06464FEA164613F1400F1FDD13F117
:10355000200FDFBF16430A46002120335B42BED056
:10356000C3F1200746EA06464FEA164602FA07F775
:1035700046EA070622FA03F2C3F1200701FA07F729
:1035800042EA070221FA03F14FF00003A7E746EAF7
:10359000020646EA06464FEA164646EA0106BCBF60
:1035A00046EA0646360C4FF000034FF000024FF09B
:1035B000000194E72DE9804C70B49A46934691E857
:1035C000380007C831EA400C48BF34EA430C03D541
:1035D000FFF7E6FDFFF780FFF0BCBDE8008C2DE9AA
:1035E000804C70B49A46934691E8380007C810F0B2
:1035F000804F08BF13F0804F03D100F005F8FFF7AC
:103600006BFFF0BCBDE8008C20F07F4723F07F4CBF
:1036100080EA030000F0004007EB0C03A3F57C53A5
:10362000A3F1FE0392F0000F00F0B38095F0000FBD
:1036300000F077802DE901494FEA114021EA004866
:103640004FEA144624EA064700FB06FC08FB06F690
:1036500007FB08F818EB06484CEB164C00FB07F785
:1036600018EB07484CEB17404FEA124B22EA0B4E7F
:103670004FEA154625EA06470BFB06FC0EFB06F64D
:1036800007FB0EFE1EEB064E4CEB164C0BFB07F732
:103690001EEB074E4CEB174B18EB0B0840F10000EC
:1036A00018EB0E0B58EB000840F100008F1A4FF09A
:1036B00000014FF000063CBFC943661B14BFB5EBC9
:1036C000040C00213CBFC943F61B4FEA174427EA0C
:1036D00004454FEA1C472CEA074C04FB076205FB34
:1036E00007F70CFB05F616EB074642EB174204FB07
:1036F0000CFC16EB0C4642EB1C421BEB060658EB8F
:10370000020241414EEA8E0E46EA9E0601D5BDE810
:103710000189B619524141EB0101A3F10103BDE852
:1037200001894FEA144524EA05464FEA114721EA88
:10373000074C05FB07F406FB07F70CFB06F111EB42
:10374000074144EB174405FB0CFC11EB0C4144EB27
:103750001C444FEA124722EA074C05FB07F206FB1E
:1037600007F70CFB06F616EB074642EB174205FB84
:103770000CFC16EB0C4642EB1C456A1854F1000198
:1037800048BF7047B619524141EB0101A3F1010353
:10379000704795F0000F37D04FEA114221EA0246F8
:1037A0004FEA144724EA074C02FB07F106FB07F730
:1037B0000CFB06F414EB074441EB174102FB0CFC35
:1037C00014EB0C4441EB1C414FEA154725EA074C2A
:1037D00002FB07F506FB07F70CFB06F616EB0746A0
:1037E00045EB174502FB0CFC16EB0C4645EB1C4267
:1037F000121951F1000148BF7047B619524141EB0F
:103800000101A3F1010370474FEA144524EA05467C
:103810004FEA114721EA074C05FB07F106FB07F7C2
:103820000CFB06F212EB074241EB174105FB0CFCC7
:1038300012EB0C4251EB1C414FF0000648BF7047A1
:10384000921841EB0101A3F10103704703B4019801
:103850004100009850EAC12018BF04204A0D18BF4B
:1038600040F0010040F2FF72B2EB515F08BF40F040
:103870000200012808BF052002B0704730380A282E
:1038800001D20120704700207047000010B50029C8
:103890000AD00878002807D005487844FCF7D0FD06
:1038A000002801D0002010BD0248784410BD00005F
:1038B000B6060000AE06000010B500290AD0087850
:1038C000002807D005487844FCF7BAFD002801D04D
:1038D000002010BD0248784410BD0000A60600007C
:1038E0009E060000491058BFC1F140415B1058BF0F
:1038F000C3F140438B42EFF30080704751EA030C61
:1039000017D41CF5801F58BFBCF5801F00F106803E
:10391000994218BF704708BF9042704707D711F50A
:10392000801F58BF13F5801F19D4994270478942F0
:1039300070471CF5801F08D5BCF5801FF7D58B425A
:1039400018BF704708BF824270474FF4001C1CEB41
:10395000410F38BF1CEB430F01D28B42704770B54B
:1039600000F042F9922449004FF000514FF080538B
:10397000FFF7B8BF10F0004248BF4042B0FA80F3F2
:1039800010FA03F10AD0C3F11D0303F5806302EBC3
:1039900003524FEA415002EBD12170474FF0000033
:1039A0007047000051EA030C17D41CF5801F58BF64
:1039B000BCF5801F00F10680994218BF704708BF10
:1039C0009042704707D711F5801F58BF13F5801F2D
:1039D00019D499427047894270471CF5801F08D559
:1039E000BCF5801FF7D58B4218BF704708BF8242D5
:1039F00070474FF4001C1CEB410F38BF1CEB430F0A
:103A000001D28B42704770B500F0EEF89224490065
:103A10004FF080514FF00053FFF764BF51EA030CA1
:103A200017D41CF5801F58BFBCF5801F00F106801D
:103A3000994218BF704708BF9042704707D711F5E9
:103A4000801F58BF13F5801F19D4994270478942CF
:103A500070471CF5801F08D5BCF5801FF7D58B4239
:103A600018BF704708BF824270474FF4001C1CEB20
:103A7000410F38BF1CEB430F01D28B42704770B52A
:103A800000F0B2F8922449004FF000514FF08053FB
:103A9000FFF728BF70B5DFF848C11CEA111E1EBF32
:103AA0001CEA13159EEA0C0F95EA0C0F00F06F80CC
:103AB00081EA03044EEAD47EAE4421EA4C1123EAA3
:103AC0004C1341F4801143F48013AEF17F7EA1FBCF
:103AD000024CA0FB0365361955EB0C05A1FB034C0A
:103AE0004CF10003A0FB021C16EB0C06654153F1E0
:103AF0000003094218BF46F0010613F4007F0BD102
:103B00004FEA03314FEA053041EA155140EA1650B9
:103B100034036FF003020AE04FEAC3214FEAC520E5
:103B200041EA555140EA5650F4026FF0020202EBAE
:103B30002E4201EB025585EACE710AD05FEA440CB1
:103B400018BF24F0004450F1000041F1000120EAC8
:103B5000D47040F2FE7C624500D270BDA84214BF12
:103B60004FF080444FF04044002E08BF0024BEF1C7
:103B7000806FA8BFA1F1C041BDE8704080F2828093
:103B800001F1C04101F000414FF0000070470CEA24
:103B900013159EEA0C0F18BF95EA0C0F06D081EAA8
:103BA000030E4FF000000EF0004170BD00F01CF855
:103BB0008900013E00F007B800F009B84FEA430C55
:103BC0005FEA5C5C08D081EA030100F05BB84FEA71
:103BD000410C5FEA5C5CF6D102494FF0000070478F
:103BE0000000FF070000F87F0EF1020E2EF0030E1A
:103BF0005EF8046B364205D4012A43EB030515F544
:103C0000001F12D8012841EB010C1CF5001F0CD835
:103C10000ED14FEAD17C0CEB4C0C0CF1020C15F5DB
:103C2000001F08BF4CEBD37C04E04FF0080C01E010
:103C30004FEAD37C0CEB4C0526FA05F606F0070696
:103C4000B6F1040C06D20EEB860CBDE870404CF0C9
:103C5000010C6047DFE80CF0090B02024FF0004155
:103C6000A1F500214FF0000070BD19461046012853
:103C700051EB010418BFD4F5001484BF002001F0FB
:103C8000004170BD0808A0F500114FEA31017047EE
:103C900010B5FFF733FE0CBF0120002010BD10B59A
:103CA000FFF72CFE14BF0120002010BD10B5FFF758
:103CB00079FE8CBF0120002010BD10B5FFF772FE09
:103CC0002CBF0120002010BD10B5FFF7A7FE94BF48
:103CD0000120002010BD10B5FFF7A0FE34BF012069
:103CE000002010BDF1EE100A4FF6FF71C0F2C03196
:103CF00020EA010040F04070E1EE100A7047FDF745
:103D000037B8FDF76FB900000000000000000000A8
:103D10003031323334353637383941424344454601
:103D200040305800303132333435363738396162FB
:103D300063646566403078000400000800000000FD
:103D400000000002000100001030313233343536FB
:103D500037383961626364656678700030313233B8
:103D600034353637383941424344454658500000CF
:103D700002400000000000A000000000054000001C
:103D8000000000C8000000000C4000000000409C43
:103D900000000000194000000020BCBE0000000030
:103DA00034400000BFC91B8E00000004B540000075
:103DB000504BCFD06607E2CF010000006C410000FD
:103DC0003E8251AADFEEA73401000000D942000074
:103DD000DCB5A0E23A301F97FFFFFFFFB4450000BB
:103DE000FD25A0C8E9A3C14FFFFFFFFFFF3F000073
:103DF0000000008000000000FF3F00000000008085
:103E000000000000400100004000000040020000EF
:103E1000000200002002000020000000200100003D
:103E200000010000446F6F722073746F70706564DE
:103E30002E0D0A0050726F6772616D2053746172AB
:103E400074732E0D0A00496E76616C696420696E88
:103E50007075742E0D0A00506C6561736520776172
:103E6000697420756E74696C20646F6F722072655E
:103E700061647920746F20696E7075742E0D0A006C
:103E8000446F6F722072656164792E0D0A00416380
:103E900063656C65726174696F6E3A20252E3266B7
:103EA0002C20252E32662C20252E32660D0A004F3E
:103EB00070656E696E670D0A00446F6E65206F70E5
:103EC000656E696E670D0A00436C6F73696E670DEE
:103ED0000A00446F6E6520636C6F73696E670D0A2C
:103EE0000054656D7065726174757265203D2025A2
:103EF0006420430A00630A006F0A00730A005465D5
:103F00006D7065726174757265206F66202564201E
:103F1000686967682C200054656D706572617475FE
:103F20007265206F66202564206C6F772C2000005E
:103F3000804000080000002010000000EC01000894
:103F40009040000810000020880A00000C020008C1
:103F50001C00000043000000F8FFFFFF0C00000001
:103F60000E0000000F0000002E00000010010000F5
:103F700043000000F8FFFFFF004040404040404049
:103F8000404041414141414040404040404040402C
:103F900040404040404040404005020202020202D0
:103FA000020202020202020202202020202020201F
:103FB0002020200202020202020290909090909033
:103FC00010101010101010101010101010101010F1
:103FD0001010101002020202020288888888888865
:103FE0000808080808080808080808080808080851
:103FF0000808080802020202400000000000000059
:1040000000000000000000000000000000000000B0
:1040100000000000000000000000000000000000A0
:104020000000000000000000000000000000000090
:104030000000000000000000000000000000000080
:104040000000000000000000000000000000000070
:104050000000000000000000000000000000000060
:104060000000000000000000000000000000000050
:104070000000000000000000000000000000000040
:10408000710100200100000071020020000000000A
:040000050800018965
:00000001FF
